{
  "_format": "hh-sol-artifact-1",
  "contractName": "Forum",
  "sourceName": "contracts/Forum.sol",
  "abi": [
    {
      "inputs": [
        {
          "internalType": "address",
          "name": "_tokenAddress",
          "type": "address"
        }
      ],
      "stateMutability": "nonpayable",
      "type": "constructor"
    },
    {
      "anonymous": false,
      "inputs": [
        {
          "components": [
            {
              "internalType": "uint256",
              "name": "answerId",
              "type": "uint256"
            },
            {
              "internalType": "uint256",
              "name": "questionId",
              "type": "uint256"
            },
            {
              "internalType": "address",
              "name": "creatorAddress",
              "type": "address"
            },
            {
              "internalType": "string",
              "name": "message",
              "type": "string"
            },
            {
              "internalType": "uint256",
              "name": "timestamp",
              "type": "uint256"
            },
            {
              "internalType": "uint256",
              "name": "upvotes",
              "type": "uint256"
            }
          ],
          "indexed": false,
          "internalType": "struct Forum.Answer",
          "name": "answer",
          "type": "tuple"
        }
      ],
      "name": "AnswerAdded",
      "type": "event"
    },
    {
      "anonymous": false,
      "inputs": [
        {
          "components": [
            {
              "internalType": "uint256",
              "name": "answerId",
              "type": "uint256"
            },
            {
              "internalType": "uint256",
              "name": "questionId",
              "type": "uint256"
            },
            {
              "internalType": "address",
              "name": "creatorAddress",
              "type": "address"
            },
            {
              "internalType": "string",
              "name": "message",
              "type": "string"
            },
            {
              "internalType": "uint256",
              "name": "timestamp",
              "type": "uint256"
            },
            {
              "internalType": "uint256",
              "name": "upvotes",
              "type": "uint256"
            }
          ],
          "indexed": false,
          "internalType": "struct Forum.Answer",
          "name": "answer",
          "type": "tuple"
        }
      ],
      "name": "AnswerUpvoted",
      "type": "event"
    },
    {
      "anonymous": false,
      "inputs": [
        {
          "components": [
            {
              "internalType": "uint256",
              "name": "questionId",
              "type": "uint256"
            },
            {
              "internalType": "string",
              "name": "message",
              "type": "string"
            },
            {
              "internalType": "address",
              "name": "creatorAddress",
              "type": "address"
            },
            {
              "internalType": "uint256",
              "name": "timestamp",
              "type": "uint256"
            }
          ],
          "indexed": false,
          "internalType": "struct Forum.Question",
          "name": "question",
          "type": "tuple"
        }
      ],
      "name": "QuestionAdded",
      "type": "event"
    },
    {
      "inputs": [],
      "name": "Goflow",
      "outputs": [
        {
          "internalType": "contract IERC20",
          "name": "",
          "type": "address"
        }
      ],
      "stateMutability": "view",
      "type": "function"
    },
    {
      "inputs": [
        {
          "internalType": "uint256",
          "name": "",
          "type": "uint256"
        }
      ],
      "name": "answers",
      "outputs": [
        {
          "internalType": "uint256",
          "name": "answerId",
          "type": "uint256"
        },
        {
          "internalType": "uint256",
          "name": "questionId",
          "type": "uint256"
        },
        {
          "internalType": "address",
          "name": "creatorAddress",
          "type": "address"
        },
        {
          "internalType": "string",
          "name": "message",
          "type": "string"
        },
        {
          "internalType": "uint256",
          "name": "timestamp",
          "type": "uint256"
        },
        {
          "internalType": "uint256",
          "name": "upvotes",
          "type": "uint256"
        }
      ],
      "stateMutability": "view",
      "type": "function"
    },
    {
      "inputs": [
        {
          "internalType": "uint256",
          "name": "",
          "type": "uint256"
        },
        {
          "internalType": "uint256",
          "name": "",
          "type": "uint256"
        }
      ],
      "name": "answersPerQuestion",
      "outputs": [
        {
          "internalType": "uint256",
          "name": "",
          "type": "uint256"
        }
      ],
      "stateMutability": "view",
      "type": "function"
    },
    {
      "inputs": [
        {
          "internalType": "uint256",
          "name": "_questionId",
          "type": "uint256"
        }
      ],
      "name": "getAnswersPerQuestion",
      "outputs": [
        {
          "internalType": "uint256[]",
          "name": "",
          "type": "uint256[]"
        }
      ],
      "stateMutability": "view",
      "type": "function"
    },
    {
      "inputs": [],
      "name": "getQuestions",
      "outputs": [
        {
          "components": [
            {
              "internalType": "uint256",
              "name": "questionId",
              "type": "uint256"
            },
            {
              "internalType": "string",
              "name": "message",
              "type": "string"
            },
            {
              "internalType": "address",
              "name": "creatorAddress",
              "type": "address"
            },
            {
              "internalType": "uint256",
              "name": "timestamp",
              "type": "uint256"
            }
          ],
          "internalType": "struct Forum.Question[]",
          "name": "",
          "type": "tuple[]"
        }
      ],
      "stateMutability": "view",
      "type": "function"
    },
    {
      "inputs": [
        {
          "internalType": "uint256",
          "name": "_answerId",
          "type": "uint256"
        }
      ],
      "name": "getUpvotes",
      "outputs": [
        {
          "internalType": "uint256",
          "name": "",
          "type": "uint256"
        }
      ],
      "stateMutability": "view",
      "type": "function"
    },
    {
      "inputs": [
        {
          "internalType": "uint256",
          "name": "_questionId",
          "type": "uint256"
        },
        {
          "internalType": "string",
          "name": "_message",
          "type": "string"
        }
      ],
      "name": "postAnswer",
      "outputs": [],
      "stateMutability": "nonpayable",
      "type": "function"
    },
    {
      "inputs": [
        {
          "internalType": "string",
          "name": "_message",
          "type": "string"
        }
      ],
      "name": "postQuestion",
      "outputs": [],
      "stateMutability": "nonpayable",
      "type": "function"
    },
    {
      "inputs": [
        {
          "internalType": "uint256",
          "name": "",
          "type": "uint256"
        }
      ],
      "name": "questions",
      "outputs": [
        {
          "internalType": "uint256",
          "name": "questionId",
          "type": "uint256"
        },
        {
          "internalType": "string",
          "name": "message",
          "type": "string"
        },
        {
          "internalType": "address",
          "name": "creatorAddress",
          "type": "address"
        },
        {
          "internalType": "uint256",
          "name": "timestamp",
          "type": "uint256"
        }
      ],
      "stateMutability": "view",
      "type": "function"
    },
    {
      "inputs": [
        {
          "internalType": "uint256",
          "name": "_answerId",
          "type": "uint256"
        }
      ],
      "name": "upvoteAnswer",
      "outputs": [],
      "stateMutability": "nonpayable",
      "type": "function"
    },
    {
      "inputs": [
        {
          "internalType": "uint256",
          "name": "",
          "type": "uint256"
        },
        {
          "internalType": "address",
          "name": "",
          "type": "address"
        }
      ],
      "name": "upvoters",
      "outputs": [
        {
          "internalType": "bool",
          "name": "",
          "type": "bool"
        }
      ],
      "stateMutability": "view",
      "type": "function"
    },
    {
      "inputs": [
        {
          "internalType": "address",
          "name": "",
          "type": "address"
        }
      ],
      "name": "usersUpvoteCount",
      "outputs": [
        {
          "internalType": "uint256",
          "name": "",
          "type": "uint256"
        }
      ],
      "stateMutability": "view",
      "type": "function"
    }
  ],
  "bytecode": "0x60a06040526012600a62000014919062000241565b600162000022919062000292565b6005556012600a62000035919062000241565b600a62000043919062000292565b6006553480156200005357600080fd5b506040516200274a3803806200274a833981810160405281019062000079919062000347565b8073ffffffffffffffffffffffffffffffffffffffff1660808173ffffffffffffffffffffffffffffffffffffffff16815250505062000379565b7f4e487b7100000000000000000000000000000000000000000000000000000000600052601160045260246000fd5b60008160011c9050919050565b6000808291508390505b600185111562000142578086048111156200011a5762000119620000b4565b5b60018516156200012a5780820291505b80810290506200013a85620000e3565b9450620000fa565b94509492505050565b6000826200015d576001905062000230565b816200016d576000905062000230565b81600181146200018657600281146200019157620001c7565b600191505062000230565b60ff841115620001a657620001a5620000b4565b5b8360020a915084821115620001c057620001bf620000b4565b5b5062000230565b5060208310610133831016604e8410600b8410161715620002015782820a905083811115620001fb57620001fa620000b4565b5b62000230565b620002108484846001620000f0565b925090508184048111156200022a5762000229620000b4565b5b81810290505b9392505050565b6000819050919050565b60006200024e8262000237565b91506200025b8362000237565b92506200028a7fffffffffffffffffffffffffffffffffffffffffffffffffffffffffffffffff84846200014b565b905092915050565b60006200029f8262000237565b9150620002ac8362000237565b9250828202620002bc8162000237565b91508282048414831517620002d657620002d5620000b4565b5b5092915050565b600080fd5b600073ffffffffffffffffffffffffffffffffffffffff82169050919050565b60006200030f82620002e2565b9050919050565b620003218162000302565b81146200032d57600080fd5b50565b600081519050620003418162000316565b92915050565b60006020828403121562000360576200035f620002dd565b5b6000620003708482850162000330565b91505092915050565b608051612392620003b86000396000818161039701528181610817015281816108f5015281816109d701528181610a9a0152610b6701526123926000f3fe608060405234801561001057600080fd5b50600436106100b45760003560e01c80637df88f24116100715780637df88f24146101bb57806397221ab7146101d757806398f42702146101f5578063a0376e8614610225578063be28341f14610255578063c921d66c14610285576100b4565b806317599cc5146100b95780632459d372146100ee57806331b1b9781461010c57806335677ad91461013f57806362bf6ffe1461016f5780637116cad81461019f575b600080fd5b6100d360048036038101906100ce91906111d0565b6102a1565b6040516100e5969594939291906112dd565b60405180910390f35b6100f6610395565b60405161010391906113a4565b60405180910390f35b610126600480360381019061012191906111d0565b6103b9565b60405161013694939291906113bf565b60405180910390f35b61015960048036038101906101549190611437565b6104a1565b6040516101669190611464565b60405180910390f35b6101896004803603810190610184919061147f565b6104b9565b60405161019691906114da565b60405180910390f35b6101b960048036038101906101b4919061155a565b6104e8565b005b6101d560048036038101906101d091906111d0565b61064c565b005b6101df610d5f565b6040516101ec9190611734565b60405180910390f35b61020f600480360381019061020a91906111d0565b610eba565b60405161021c9190611464565b60405180910390f35b61023f600480360381019061023a91906111d0565b610f33565b60405161024c9190611805565b60405180910390f35b61026f600480360381019061026a9190611827565b610f9e565b60405161027c9190611464565b60405180910390f35b61029f600480360381019061029a9190611867565b610fcf565b005b600181815481106102b157600080fd5b90600052602060002090600602016000915090508060000154908060010154908060020160009054906101000a900473ffffffffffffffffffffffffffffffffffffffff1690806003018054610306906118f6565b80601f0160208091040260200160405190810160405280929190818152602001828054610332906118f6565b801561037f5780601f106103545761010080835404028352916020019161037f565b820191906000526020600020905b81548152906001019060200180831161036257829003601f168201915b5050505050908060040154908060050154905086565b7f000000000000000000000000000000000000000000000000000000000000000081565b600081815481106103c957600080fd5b90600052602060002090600402016000915090508060000154908060010180546103f2906118f6565b80601f016020809104026020016040519081016040528092919081815260200182805461041e906118f6565b801561046b5780601f106104405761010080835404028352916020019161046b565b820191906000526020600020905b81548152906001019060200180831161044e57829003601f168201915b5050505050908060020160009054906101000a900473ffffffffffffffffffffffffffffffffffffffff16908060030154905084565b60046020528060005260406000206000915090505481565b60036020528160005260406000206020528060005260406000206000915091509054906101000a900460ff1681565b6000808054905090506000604051806080016040528083815260200185858080601f016020809104026020016040519081016040528093929190818152602001838380828437600081840152601f19601f8201169050808301925050505050505081526020013373ffffffffffffffffffffffffffffffffffffffff16815260200142815250905060008190806001815401808255809150506001900390600052602060002090600402016000909190919091506000820151816000015560208201518160010190816105bb9190611af8565b5060408201518160020160006101000a81548173ffffffffffffffffffffffffffffffffffffffff021916908373ffffffffffffffffffffffffffffffffffffffff1602179055506060820151816003015550507f376a18caacbe57016421ef9c029b5cbc76833d5ee118741aced9f7b0d50807558160405161063e9190611c2d565b60405180910390a150505050565b80806001805490501015610695576040517f08c379a000000000000000000000000000000000000000000000000000000000815260040161068c90611c9b565b60405180910390fd5b6000600183815481106106ab576106aa611cbb565b5b90600052602060002090600602019050600115156003600085815260200190815260200160002060003373ffffffffffffffffffffffffffffffffffffffff1673ffffffffffffffffffffffffffffffffffffffff16815260200190815260200160002060009054906101000a900460ff1615150361075f576040517f08c379a000000000000000000000000000000000000000000000000000000000815260040161075690611d5c565b60405180910390fd5b3373ffffffffffffffffffffffffffffffffffffffff166001848154811061078a57610789611cbb565b5b906000526020600020906006020160020160009054906101000a900473ffffffffffffffffffffffffffffffffffffffff1673ffffffffffffffffffffffffffffffffffffffff1603610812576040517f08c379a000000000000000000000000000000000000000000000000000000000815260040161080990611dc8565b60405180910390fd5b6005547f000000000000000000000000000000000000000000000000000000000000000073ffffffffffffffffffffffffffffffffffffffff166370a08231336040518263ffffffff1660e01b815260040161086e9190611de8565b602060405180830381865afa15801561088b573d6000803e3d6000fd5b505050506040513d601f19601f820116820180604052508101906108af9190611e18565b10156108f0576040517f08c379a00000000000000000000000000000000000000000000000000000000081526004016108e790611e91565b60405180910390fd5b6005547f000000000000000000000000000000000000000000000000000000000000000073ffffffffffffffffffffffffffffffffffffffff1663dd62ed3e33306040518363ffffffff1660e01b815260040161094e929190611eb1565b602060405180830381865afa15801561096b573d6000803e3d6000fd5b505050506040513d601f19601f8201168201806040525081019061098f9190611e18565b10156109d0576040517f08c379a00000000000000000000000000000000000000000000000000000000081526004016109c790611f4c565b60405180910390fd5b60006006547f000000000000000000000000000000000000000000000000000000000000000073ffffffffffffffffffffffffffffffffffffffff166370a082318460020160009054906101000a900473ffffffffffffffffffffffffffffffffffffffff166040518263ffffffff1660e01b8152600401610a529190611de8565b602060405180830381865afa158015610a6f573d6000803e3d6000fd5b505050506040513d601f19601f82011682018060405250810190610a939190611e18565b10610b65577f000000000000000000000000000000000000000000000000000000000000000073ffffffffffffffffffffffffffffffffffffffff166323b872dd338460020160009054906101000a900473ffffffffffffffffffffffffffffffffffffffff166005546040518463ffffffff1660e01b8152600401610b1b93929190611f6c565b6020604051808303816000875af1158015610b3a573d6000803e3d6000fd5b505050506040513d601f19601f82011682018060405250810190610b5e9190611fcf565b9050610c0a565b7f000000000000000000000000000000000000000000000000000000000000000073ffffffffffffffffffffffffffffffffffffffff166323b872dd33306005546040518463ffffffff1660e01b8152600401610bc493929190611f6c565b6020604051808303816000875af1158015610be3573d6000803e3d6000fd5b505050506040513d601f19601f82011682018060405250810190610c079190611fcf565b90505b80610c4a576040517f08c379a0000000000000000000000000000000000000000000000000000000008152600401610c4190612048565b60405180910390fd5b816005016000815480929190610c5f90612097565b9190505550600460003373ffffffffffffffffffffffffffffffffffffffff1673ffffffffffffffffffffffffffffffffffffffff1681526020019081526020016000206000815480929190610cb490612097565b919050555060016003600086815260200190815260200160002060003373ffffffffffffffffffffffffffffffffffffffff1673ffffffffffffffffffffffffffffffffffffffff16815260200190815260200160002060006101000a81548160ff0219169083151502179055507f981efbd3888e53838a0e471c971b195676b7d47ce0aa1fe7398e3159ac9c145282604051610d51919061228f565b60405180910390a150505050565b60606000805480602002602001604051908101604052809291908181526020016000905b82821015610eb1578382906000526020600020906004020160405180608001604052908160008201548152602001600182018054610dc0906118f6565b80601f0160208091040260200160405190810160405280929190818152602001828054610dec906118f6565b8015610e395780601f10610e0e57610100808354040283529160200191610e39565b820191906000526020600020905b815481529060010190602001808311610e1c57829003601f168201915b505050505081526020016002820160009054906101000a900473ffffffffffffffffffffffffffffffffffffffff1673ffffffffffffffffffffffffffffffffffffffff1673ffffffffffffffffffffffffffffffffffffffff16815260200160038201548152505081526020019060010190610d83565b50505050905090565b600081806001805490501015610f05576040517f08c379a0000000000000000000000000000000000000000000000000000000008152600401610efc90611c9b565b60405180910390fd5b60018381548110610f1957610f18611cbb565b5b906000526020600020906006020160050154915050919050565b606060026000838152602001908152602001600020805480602002602001604051908101604052809291908181526020018280548015610f9257602002820191906000526020600020905b815481526020019060010190808311610f7e575b50505050509050919050565b60026020528160005260406000208181548110610fba57600080fd5b90600052602060002001600091509150505481565b6000600180549050905060006040518060c001604052808381526020018681526020013373ffffffffffffffffffffffffffffffffffffffff16815260200185858080601f016020809104026020016040519081016040528093929190818152602001838380828437600081840152601f19601f820116905080830192505050505050508152602001428152602001600081525090506001819080600181540180825580915050600190039060005260206000209060060201600090919091909150600082015181600001556020820151816001015560408201518160020160006101000a81548173ffffffffffffffffffffffffffffffffffffffff021916908373ffffffffffffffffffffffffffffffffffffffff16021790555060608201518160030190816111019190611af8565b506080820151816004015560a082015181600501555050600260008681526020019081526020016000208290806001815401808255809150506001900390600052602060002001600090919091909150557f3cf697c933d5f6c91a562467f0ee88bd2ced5cda13703bce99632e92fd7fff7381604051611181919061233a565b60405180910390a15050505050565b600080fd5b600080fd5b6000819050919050565b6111ad8161119a565b81146111b857600080fd5b50565b6000813590506111ca816111a4565b92915050565b6000602082840312156111e6576111e5611190565b5b60006111f4848285016111bb565b91505092915050565b6112068161119a565b82525050565b600073ffffffffffffffffffffffffffffffffffffffff82169050919050565b60006112378261120c565b9050919050565b6112478161122c565b82525050565b600081519050919050565b600082825260208201905092915050565b60005b8381101561128757808201518184015260208101905061126c565b60008484015250505050565b6000601f19601f8301169050919050565b60006112af8261124d565b6112b98185611258565b93506112c9818560208601611269565b6112d281611293565b840191505092915050565b600060c0820190506112f260008301896111fd565b6112ff60208301886111fd565b61130c604083018761123e565b818103606083015261131e81866112a4565b905061132d60808301856111fd565b61133a60a08301846111fd565b979650505050505050565b6000819050919050565b600061136a6113656113608461120c565b611345565b61120c565b9050919050565b600061137c8261134f565b9050919050565b600061138e82611371565b9050919050565b61139e81611383565b82525050565b60006020820190506113b96000830184611395565b92915050565b60006080820190506113d460008301876111fd565b81810360208301526113e681866112a4565b90506113f5604083018561123e565b61140260608301846111fd565b95945050505050565b6114148161122c565b811461141f57600080fd5b50565b6000813590506114318161140b565b92915050565b60006020828403121561144d5761144c611190565b5b600061145b84828501611422565b91505092915050565b600060208201905061147960008301846111fd565b92915050565b6000806040838503121561149657611495611190565b5b60006114a4858286016111bb565b92505060206114b585828601611422565b9150509250929050565b60008115159050919050565b6114d4816114bf565b82525050565b60006020820190506114ef60008301846114cb565b92915050565b600080fd5b600080fd5b600080fd5b60008083601f84011261151a576115196114f5565b5b8235905067ffffffffffffffff811115611537576115366114fa565b5b602083019150836001820283011115611553576115526114ff565b5b9250929050565b6000806020838503121561157157611570611190565b5b600083013567ffffffffffffffff81111561158f5761158e611195565b5b61159b85828601611504565b92509250509250929050565b600081519050919050565b600082825260208201905092915050565b6000819050602082019050919050565b6115dc8161119a565b82525050565b600082825260208201905092915050565b60006115fe8261124d565b61160881856115e2565b9350611618818560208601611269565b61162181611293565b840191505092915050565b6116358161122c565b82525050565b600060808301600083015161165360008601826115d3565b506020830151848203602086015261166b82826115f3565b9150506040830151611680604086018261162c565b50606083015161169360608601826115d3565b508091505092915050565b60006116aa838361163b565b905092915050565b6000602082019050919050565b60006116ca826115a7565b6116d481856115b2565b9350836020820285016116e6856115c3565b8060005b858110156117225784840389528151611703858261169e565b945061170e836116b2565b925060208a019950506001810190506116ea565b50829750879550505050505092915050565b6000602082019050818103600083015261174e81846116bf565b905092915050565b600081519050919050565b600082825260208201905092915050565b6000819050602082019050919050565b600061178e83836115d3565b60208301905092915050565b6000602082019050919050565b60006117b282611756565b6117bc8185611761565b93506117c783611772565b8060005b838110156117f85781516117df8882611782565b97506117ea8361179a565b9250506001810190506117cb565b5085935050505092915050565b6000602082019050818103600083015261181f81846117a7565b905092915050565b6000806040838503121561183e5761183d611190565b5b600061184c858286016111bb565b925050602061185d858286016111bb565b9150509250929050565b6000806000604084860312156118805761187f611190565b5b600061188e868287016111bb565b935050602084013567ffffffffffffffff8111156118af576118ae611195565b5b6118bb86828701611504565b92509250509250925092565b7f4e487b7100000000000000000000000000000000000000000000000000000000600052602260045260246000fd5b6000600282049050600182168061190e57607f821691505b602082108103611921576119206118c7565b5b50919050565b7f4e487b7100000000000000000000000000000000000000000000000000000000600052604160045260246000fd5b60008190508160005260206000209050919050565b60006020601f8301049050919050565b600082821b905092915050565b6000600883026119b87fffffffffffffffffffffffffffffffffffffffffffffffffffffffffffffffff8261197b565b6119c2868361197b565b95508019841693508086168417925050509392505050565b60006119f56119f06119eb8461119a565b611345565b61119a565b9050919050565b6000819050919050565b611a0f836119da565b611a23611a1b826119fc565b848454611988565b825550505050565b600090565b611a38611a2b565b611a43818484611a06565b505050565b5b81811015611a6757611a5c600082611a30565b600181019050611a49565b5050565b601f821115611aac57611a7d81611956565b611a868461196b565b81016020851015611a95578190505b611aa9611aa18561196b565b830182611a48565b50505b505050565b600082821c905092915050565b6000611acf60001984600802611ab1565b1980831691505092915050565b6000611ae88383611abe565b9150826002028217905092915050565b611b018261124d565b67ffffffffffffffff811115611b1a57611b19611927565b5b611b2482546118f6565b611b2f828285611a6b565b600060209050601f831160018114611b625760008415611b50578287015190505b611b5a8582611adc565b865550611bc2565b601f198416611b7086611956565b60005b82811015611b9857848901518255600182019150602085019450602081019050611b73565b86831015611bb55784890151611bb1601f891682611abe565b8355505b6001600288020188555050505b505050505050565b6000608083016000830151611be260008601826115d3565b5060208301518482036020860152611bfa82826115f3565b9150506040830151611c0f604086018261162c565b506060830151611c2260608601826115d3565b508091505092915050565b60006020820190508181036000830152611c478184611bca565b905092915050565b7f416e7377657220646f6573206e6f742065786973742100000000000000000000600082015250565b6000611c85601683611258565b9150611c9082611c4f565b602082019050919050565b60006020820190508181036000830152611cb481611c78565b9050919050565b7f4e487b7100000000000000000000000000000000000000000000000000000000600052603260045260246000fd5b7f5573657220616c7265616479207570766f746564207468697320616e7377657260008201527f2100000000000000000000000000000000000000000000000000000000000000602082015250565b6000611d46602183611258565b9150611d5182611cea565b604082019050919050565b60006020820190508181036000830152611d7581611d39565b9050919050565b7f43616e6e6f74207570766f7465206f776e20616e737765722100000000000000600082015250565b6000611db2601983611258565b9150611dbd82611d7c565b602082019050919050565b60006020820190508181036000830152611de181611da5565b9050919050565b6000602082019050611dfd600083018461123e565b92915050565b600081519050611e12816111a4565b92915050565b600060208284031215611e2e57611e2d611190565b5b6000611e3c84828501611e03565b91505092915050565b7f557365722068617320696e73756666696369656e742062616c616e6365210000600082015250565b6000611e7b601e83611258565b9150611e8682611e45565b602082019050919050565b60006020820190508181036000830152611eaa81611e6e565b9050919050565b6000604082019050611ec6600083018561123e565b611ed3602083018461123e565b9392505050565b7f4163636f756e7420646964206e6f7420617070726f766520746f6b656e20737560008201527f6363657366756c6c792100000000000000000000000000000000000000000000602082015250565b6000611f36602a83611258565b9150611f4182611eda565b604082019050919050565b60006020820190508181036000830152611f6581611f29565b9050919050565b6000606082019050611f81600083018661123e565b611f8e602083018561123e565b611f9b60408301846111fd565b949350505050565b611fac816114bf565b8114611fb757600080fd5b50565b600081519050611fc981611fa3565b92915050565b600060208284031215611fe557611fe4611190565b5b6000611ff384828501611fba565b91505092915050565b7f546f6b656e207472616e73666572206661696c65642100000000000000000000600082015250565b6000612032601683611258565b915061203d82611ffc565b602082019050919050565b6000602082019050818103600083015261206181612025565b9050919050565b7f4e487b7100000000000000000000000000000000000000000000000000000000600052601160045260246000fd5b60006120a28261119a565b91507fffffffffffffffffffffffffffffffffffffffffffffffffffffffffffffffff82036120d4576120d3612068565b5b600182019050919050565b60008160001c9050919050565b6000819050919050565b6000612109612104836120df565b6120ec565b9050919050565b600073ffffffffffffffffffffffffffffffffffffffff82169050919050565b600061214361213e836120df565b612110565b9050919050565b60008154612157816118f6565b61216181866115e2565b9450600182166000811461217c5760018114612192576121c5565b60ff1983168652811515602002860193506121c5565b61219b85611956565b60005b838110156121bd5781548189015260018201915060208101905061219e565b808801955050505b50505092915050565b600060c0830160008084015490506121e5816120f6565b6121f260008701826115d3565b5060018401549050612203816120f6565b61221060208701826115d3565b506002840154905061222181612130565b61222e604087018261162c565b50600384018583036060870152612245838261214a565b92505060048401549050612258816120f6565b61226560808701826115d3565b5060058401549050612276816120f6565b61228360a08701826115d3565b50819250505092915050565b600060208201905081810360008301526122a981846121ce565b905092915050565b600060c0830160008301516122c960008601826115d3565b5060208301516122dc60208601826115d3565b5060408301516122ef604086018261162c565b506060830151848203606086015261230782826115f3565b915050608083015161231c60808601826115d3565b5060a083015161232f60a08601826115d3565b508091505092915050565b6000602082019050818103600083015261235481846122b1565b90509291505056fea26469706673582212207c41a1cd0a65f390f751147d5dd65403795809d6667b70decf61fc9dfa72eac364736f6c63430008110033",
  "linkReferences": {},
  "deployedLinkReferences": {}
}