{
  "_format": "hh-sol-artifact-1",
  "contractName": "AMM",
  "sourceName": "contracts/Amm.sol",
  "abi": [
    {
      "inputs": [
        {
          "internalType": "contract IERC20",
          "name": "_matic",
          "type": "address"
        },
        {
          "internalType": "contract IERC20",
          "name": "_goflow",
          "type": "address"
        }
      ],
      "stateMutability": "nonpayable",
      "type": "constructor"
    },
    {
      "inputs": [
        {
          "internalType": "uint256",
          "name": "_amountMatic",
          "type": "uint256"
        }
      ],
      "name": "getEquivalentGoflowEstimate",
      "outputs": [
        {
          "internalType": "uint256",
          "name": "reqGoflow",
          "type": "uint256"
        }
      ],
      "stateMutability": "view",
      "type": "function"
    },
    {
      "inputs": [
        {
          "internalType": "uint256",
          "name": "_amountGoflow",
          "type": "uint256"
        }
      ],
      "name": "getEquivalentMaticEstimate",
      "outputs": [
        {
          "internalType": "uint256",
          "name": "reqMatic",
          "type": "uint256"
        }
      ],
      "stateMutability": "view",
      "type": "function"
    },
    {
      "inputs": [
        {
          "internalType": "address",
          "name": "user",
          "type": "address"
        }
      ],
      "name": "getMyHoldings",
      "outputs": [
        {
          "internalType": "uint256",
          "name": "maticAmount",
          "type": "uint256"
        },
        {
          "internalType": "uint256",
          "name": "goflowAmount",
          "type": "uint256"
        },
        {
          "internalType": "uint256",
          "name": "myShare",
          "type": "uint256"
        }
      ],
      "stateMutability": "view",
      "type": "function"
    },
    {
      "inputs": [],
      "name": "getPoolDetails",
      "outputs": [
        {
          "internalType": "uint256",
          "name": "maticAmount",
          "type": "uint256"
        },
        {
          "internalType": "uint256",
          "name": "goflowAmount",
          "type": "uint256"
        },
        {
          "internalType": "uint256",
          "name": "ammShares",
          "type": "uint256"
        }
      ],
      "stateMutability": "view",
      "type": "function"
    },
    {
      "inputs": [
        {
          "internalType": "uint256",
          "name": "_amountGoflow",
          "type": "uint256"
        }
      ],
      "name": "getSwapGoflowEstimate",
      "outputs": [
        {
          "internalType": "uint256",
          "name": "amountMatic",
          "type": "uint256"
        }
      ],
      "stateMutability": "view",
      "type": "function"
    },
    {
      "inputs": [
        {
          "internalType": "uint256",
          "name": "_amountMatic",
          "type": "uint256"
        }
      ],
      "name": "getSwapMaticEstimate",
      "outputs": [
        {
          "internalType": "uint256",
          "name": "amountGoflow",
          "type": "uint256"
        }
      ],
      "stateMutability": "view",
      "type": "function"
    },
    {
      "inputs": [
        {
          "internalType": "uint256",
          "name": "_share",
          "type": "uint256"
        }
      ],
      "name": "getWithdrawEstimate",
      "outputs": [
        {
          "internalType": "uint256",
          "name": "amountMatic",
          "type": "uint256"
        },
        {
          "internalType": "uint256",
          "name": "amountGoflow",
          "type": "uint256"
        }
      ],
      "stateMutability": "view",
      "type": "function"
    },
    {
      "inputs": [
        {
          "internalType": "uint256",
          "name": "_amountMatic",
          "type": "uint256"
        },
        {
          "internalType": "uint256",
          "name": "_amountGoflow",
          "type": "uint256"
        }
      ],
      "name": "provide",
      "outputs": [
        {
          "internalType": "uint256",
          "name": "share",
          "type": "uint256"
        }
      ],
      "stateMutability": "nonpayable",
      "type": "function"
    },
    {
      "inputs": [
        {
          "internalType": "uint256",
          "name": "_amountGoflow",
          "type": "uint256"
        }
      ],
      "name": "swapGoflow",
      "outputs": [
        {
          "internalType": "uint256",
          "name": "amountMatic",
          "type": "uint256"
        }
      ],
      "stateMutability": "nonpayable",
      "type": "function"
    },
    {
      "inputs": [
        {
          "internalType": "uint256",
          "name": "_amountMatic",
          "type": "uint256"
        }
      ],
      "name": "swapMatic",
      "outputs": [
        {
          "internalType": "uint256",
          "name": "amountGoflow",
          "type": "uint256"
        }
      ],
      "stateMutability": "nonpayable",
      "type": "function"
    },
    {
      "inputs": [
        {
          "internalType": "uint256",
          "name": "_share",
          "type": "uint256"
        }
      ],
      "name": "withdraw",
      "outputs": [
        {
          "internalType": "uint256",
          "name": "amountMatic",
          "type": "uint256"
        },
        {
          "internalType": "uint256",
          "name": "amountGoflow",
          "type": "uint256"
        }
      ],
      "stateMutability": "nonpayable",
      "type": "function"
    }
  ],
  "bytecode": "0x60c06040523480156200001157600080fd5b50604051620020fe380380620020fe833981810160405281019062000037919062000125565b8173ffffffffffffffffffffffffffffffffffffffff1660808173ffffffffffffffffffffffffffffffffffffffff16815250508073ffffffffffffffffffffffffffffffffffffffff1660a08173ffffffffffffffffffffffffffffffffffffffff168152505050506200016c565b600080fd5b600073ffffffffffffffffffffffffffffffffffffffff82169050919050565b6000620000d982620000ac565b9050919050565b6000620000ed82620000cc565b9050919050565b620000ff81620000e0565b81146200010b57600080fd5b50565b6000815190506200011f81620000f4565b92915050565b600080604083850312156200013f576200013e620000a7565b5b60006200014f858286016200010e565b925050602062000162858286016200010e565b9150509250929050565b60805160a051611f11620001ed6000396000818161052701528181610aa301528181610c2801528181610d5401528181610ff0015281816112950152611530015260008181610488015281816107c6015281816108f3015281816109d001528181610e2701528181610ecf015281816111f401526114940152611f116000f3fe608060405234801561001057600080fd5b50600436106100a95760003560e01c8063c9fc4d5811610071578063c9fc4d5814610190578063e184e6cb146101c0578063e20b2547146101f0578063e8c3c54f14610220578063ed6793a514610250578063f711c4e914610280576100a9565b80632e1a7d4d146100ae578063452ff0b9146100df578063581367ac1461010f578063aca34c111461013f578063b32440411461015f575b600080fd5b6100c860048036038101906100c3919061164e565b6102b2565b6040516100d692919061168a565b60405180910390f35b6100f960048036038101906100f4919061164e565b6105ca565b60405161010691906116b3565b60405180910390f35b6101296004803603810190610124919061164e565b610632565b60405161013691906116b3565b60405180910390f35b61014761069a565b604051610156939291906116ce565b60405180910390f35b6101796004803603810190610174919061164e565b6106b3565b60405161018792919061168a565b60405180910390f35b6101aa60048036038101906101a5919061164e565b61077e565b6040516101b791906116b3565b60405180910390f35b6101da60048036038101906101d5919061164e565b610b47565b6040516101e791906116b3565b60405180910390f35b61020a6004803603810190610205919061164e565b610be0565b60405161021791906116b3565b60405180910390f35b61023a60048036038101906102359190611705565b610ecb565b60405161024791906116b3565b60405180910390f35b61026a6004803603810190610265919061164e565b6113f4565b60405161027791906116b3565b60405180910390f35b61029a600480360381019061029591906117a3565b61148d565b6040516102a9939291906116ce565b60405180910390f35b60008060008054116102f9576040517f08c379a00000000000000000000000000000000000000000000000000000000081526004016102f09061182d565b60405180910390fd5b826000811161033d576040517f08c379a000000000000000000000000000000000000000000000000000000000815260040161033490611899565b60405180910390fd5b600460003373ffffffffffffffffffffffffffffffffffffffff1673ffffffffffffffffffffffffffffffffffffffff168152602001908152602001600020548111156103bf576040517f08c379a00000000000000000000000000000000000000000000000000000000081526004016103b690611905565b60405180910390fd5b6103c8846106b3565b809350819450505083600460003373ffffffffffffffffffffffffffffffffffffffff1673ffffffffffffffffffffffffffffffffffffffff168152602001908152602001600020600082825461041f9190611954565b92505081905550836000808282546104379190611954565b9250508190555082600160008282546104509190611954565b9250508190555081600260008282546104699190611954565b925050819055506002546001546104809190611988565b6003819055507f000000000000000000000000000000000000000000000000000000000000000073ffffffffffffffffffffffffffffffffffffffff1663a9059cbb33856040518363ffffffff1660e01b81526004016104e19291906119d9565b6020604051808303816000875af1158015610500573d6000803e3d6000fd5b505050506040513d601f19601f820116820180604052508101906105249190611a3a565b507f000000000000000000000000000000000000000000000000000000000000000073ffffffffffffffffffffffffffffffffffffffff1663a9059cbb33846040518363ffffffff1660e01b81526004016105809291906119d9565b6020604051808303816000875af115801561059f573d6000803e3d6000fd5b505050506040513d601f19601f820116820180604052508101906105c39190611a3a565b5050915091565b60008060005411610610576040517f08c379a00000000000000000000000000000000000000000000000000000000081526004016106079061182d565b60405180910390fd5b6002548261061e9190611a96565b60015461062b9190611988565b9050919050565b60008060005411610678576040517f08c379a000000000000000000000000000000000000000000000000000000000815260040161066f9061182d565b60405180910390fd5b600154826106869190611a96565b6002546106939190611988565b9050919050565b6000806000600154925060025491506000549050909192565b60008060008054116106fa576040517f08c379a00000000000000000000000000000000000000000000000000000000081526004016106f19061182d565b60405180910390fd5b60005483111561073f576040517f08c379a000000000000000000000000000000000000000000000000000000000815260040161073690611b39565b60405180910390fd5b600054600154846107509190611988565b61075a9190611a96565b91506000546002548461076d9190611988565b6107779190611a96565b9050915091565b600080600054116107c4576040517f08c379a00000000000000000000000000000000000000000000000000000000081526004016107bb9061182d565b60405180910390fd5b7f00000000000000000000000000000000000000000000000000000000000000008260008111610829576040517f08c379a000000000000000000000000000000000000000000000000000000000815260040161082090611ba5565b60405180910390fd5b8173ffffffffffffffffffffffffffffffffffffffff166370a08231336040518263ffffffff1660e01b81526004016108629190611bc5565b602060405180830381865afa15801561087f573d6000803e3d6000fd5b505050506040513d601f19601f820116820180604052508101906108a39190611bf5565b8111156108e5576040517f08c379a00000000000000000000000000000000000000000000000000000000081526004016108dc90611c6e565b60405180910390fd5b6108ee84610b47565b9250837f000000000000000000000000000000000000000000000000000000000000000073ffffffffffffffffffffffffffffffffffffffff1663dd62ed3e33306040518363ffffffff1660e01b815260040161094c929190611c8e565b602060405180830381865afa158015610969573d6000803e3d6000fd5b505050506040513d601f19601f8201168201806040525081019061098d9190611bf5565b10156109ce576040517f08c379a00000000000000000000000000000000000000000000000000000000081526004016109c590611d03565b60405180910390fd5b7f000000000000000000000000000000000000000000000000000000000000000073ffffffffffffffffffffffffffffffffffffffff166323b872dd3330876040518463ffffffff1660e01b8152600401610a2b93929190611d23565b6020604051808303816000875af1158015610a4a573d6000803e3d6000fd5b505050506040513d601f19601f82011682018060405250810190610a6e9190611a3a565b508360016000828254610a819190611d5a565b925050819055508260026000828254610a9a9190611954565b925050819055507f000000000000000000000000000000000000000000000000000000000000000073ffffffffffffffffffffffffffffffffffffffff1663a9059cbb33856040518363ffffffff1660e01b8152600401610afc9291906119d9565b6020604051808303816000875af1158015610b1b573d6000803e3d6000fd5b505050506040513d601f19601f82011682018060405250810190610b3f9190611a3a565b505050919050565b60008060005411610b8d576040517f08c379a0000000000000000000000000000000000000000000000000000000008152600401610b849061182d565b60405180910390fd5b600082600154610b9d9190611d5a565b9050600081600354610baf9190611a96565b905080600254610bbf9190611954565b92506002548303610bd9578280610bd590611d8e565b9350505b5050919050565b60008060005411610c26576040517f08c379a0000000000000000000000000000000000000000000000000000000008152600401610c1d9061182d565b60405180910390fd5b7f00000000000000000000000000000000000000000000000000000000000000008260008111610c8b576040517f08c379a0000000000000000000000000000000000000000000000000000000008152600401610c8290611ba5565b60405180910390fd5b8173ffffffffffffffffffffffffffffffffffffffff166370a08231336040518263ffffffff1660e01b8152600401610cc49190611bc5565b602060405180830381865afa158015610ce1573d6000803e3d6000fd5b505050506040513d601f19601f82011682018060405250810190610d059190611bf5565b811115610d47576040517f08c379a0000000000000000000000000000000000000000000000000000000008152600401610d3e90611c6e565b60405180910390fd5b610d50846113f4565b92507f000000000000000000000000000000000000000000000000000000000000000073ffffffffffffffffffffffffffffffffffffffff166323b872dd3330876040518463ffffffff1660e01b8152600401610daf93929190611d23565b6020604051808303816000875af1158015610dce573d6000803e3d6000fd5b505050506040513d601f19601f82011682018060405250810190610df29190611a3a565b508360026000828254610e059190611d5a565b925050819055508260016000828254610e1e9190611954565b925050819055507f000000000000000000000000000000000000000000000000000000000000000073ffffffffffffffffffffffffffffffffffffffff1663a9059cbb33856040518363ffffffff1660e01b8152600401610e809291906119d9565b6020604051808303816000875af1158015610e9f573d6000803e3d6000fd5b505050506040513d601f19601f82011682018060405250810190610ec39190611a3a565b505050919050565b60007f00000000000000000000000000000000000000000000000000000000000000008360008111610f32576040517f08c379a0000000000000000000000000000000000000000000000000000000008152600401610f2990611ba5565b60405180910390fd5b8173ffffffffffffffffffffffffffffffffffffffff166370a08231336040518263ffffffff1660e01b8152600401610f6b9190611bc5565b602060405180830381865afa158015610f88573d6000803e3d6000fd5b505050506040513d601f19601f82011682018060405250810190610fac9190611bf5565b811115610fee576040517f08c379a0000000000000000000000000000000000000000000000000000000008152600401610fe590611c6e565b60405180910390fd5b7f00000000000000000000000000000000000000000000000000000000000000008460008111611053576040517f08c379a000000000000000000000000000000000000000000000000000000000815260040161104a90611ba5565b60405180910390fd5b8173ffffffffffffffffffffffffffffffffffffffff166370a08231336040518263ffffffff1660e01b815260040161108c9190611bc5565b602060405180830381865afa1580156110a9573d6000803e3d6000fd5b505050506040513d601f19601f820116820180604052508101906110cd9190611bf5565b81111561110f576040517f08c379a000000000000000000000000000000000000000000000000000000000815260040161110690611c6e565b60405180910390fd5b60008054036111295768056bc75e2d6310000094506111af565b6000600154886111399190611a96565b6000546111469190611988565b90506000600254886111589190611a96565b6000546111659190611988565b90508082146111a9576040517f08c379a00000000000000000000000000000000000000000000000000000000081526004016111a090611e29565b60405180910390fd5b81965050505b600085116111f2576040517f08c379a00000000000000000000000000000000000000000000000000000000081526004016111e990611ebb565b60405180910390fd5b7f000000000000000000000000000000000000000000000000000000000000000073ffffffffffffffffffffffffffffffffffffffff166323b872dd33308a6040518463ffffffff1660e01b815260040161124f93929190611d23565b6020604051808303816000875af115801561126e573d6000803e3d6000fd5b505050506040513d601f19601f820116820180604052508101906112929190611a3a565b507f000000000000000000000000000000000000000000000000000000000000000073ffffffffffffffffffffffffffffffffffffffff166323b872dd3330896040518463ffffffff1660e01b81526004016112f093929190611d23565b6020604051808303816000875af115801561130f573d6000803e3d6000fd5b505050506040513d601f19601f820116820180604052508101906113339190611a3a565b5086600160008282546113469190611d5a565b92505081905550856002600082825461135f9190611d5a565b925050819055506002546001546113769190611988565b6003819055508460008082825461138d9190611d5a565b9250508190555084600460003373ffffffffffffffffffffffffffffffffffffffff1673ffffffffffffffffffffffffffffffffffffffff16815260200190815260200160002060008282546113e39190611d5a565b925050819055505050505092915050565b6000806000541161143a576040517f08c379a00000000000000000000000000000000000000000000000000000000081526004016114319061182d565b60405180910390fd5b60008260025461144a9190611d5a565b905060008160035461145c9190611a96565b90508060015461146c9190611954565b9250600154830361148657828061148290611d8e565b9350505b5050919050565b60008060007f000000000000000000000000000000000000000000000000000000000000000073ffffffffffffffffffffffffffffffffffffffff166370a08231856040518263ffffffff1660e01b81526004016114eb9190611bc5565b602060405180830381865afa158015611508573d6000803e3d6000fd5b505050506040513d601f19601f8201168201806040525081019061152c9190611bf5565b92507f000000000000000000000000000000000000000000000000000000000000000073ffffffffffffffffffffffffffffffffffffffff166370a08231856040518263ffffffff1660e01b81526004016115879190611bc5565b602060405180830381865afa1580156115a4573d6000803e3d6000fd5b505050506040513d601f19601f820116820180604052508101906115c89190611bf5565b9150600460008573ffffffffffffffffffffffffffffffffffffffff1673ffffffffffffffffffffffffffffffffffffffff1681526020019081526020016000205490509193909250565b600080fd5b6000819050919050565b61162b81611618565b811461163657600080fd5b50565b60008135905061164881611622565b92915050565b60006020828403121561166457611663611613565b5b600061167284828501611639565b91505092915050565b61168481611618565b82525050565b600060408201905061169f600083018561167b565b6116ac602083018461167b565b9392505050565b60006020820190506116c8600083018461167b565b92915050565b60006060820190506116e3600083018661167b565b6116f0602083018561167b565b6116fd604083018461167b565b949350505050565b6000806040838503121561171c5761171b611613565b5b600061172a85828601611639565b925050602061173b85828601611639565b9150509250929050565b600073ffffffffffffffffffffffffffffffffffffffff82169050919050565b600061177082611745565b9050919050565b61178081611765565b811461178b57600080fd5b50565b60008135905061179d81611777565b92915050565b6000602082840312156117b9576117b8611613565b5b60006117c78482850161178e565b91505092915050565b600082825260208201905092915050565b7f5a65726f204c6971756964697479000000000000000000000000000000000000600082015250565b6000611817600e836117d0565b9150611822826117e1565b602082019050919050565b600060208201905081810360008301526118468161180a565b9050919050565b7f536861726520616d6f756e742063616e6e6f74206265207a65726f2100000000600082015250565b6000611883601c836117d0565b915061188e8261184d565b602082019050919050565b600060208201905081810360008301526118b281611876565b9050919050565b7f496e73756666696369656e7420736861726520616d6f756e7400000000000000600082015250565b60006118ef6019836117d0565b91506118fa826118b9565b602082019050919050565b6000602082019050818103600083015261191e816118e2565b9050919050565b7f4e487b7100000000000000000000000000000000000000000000000000000000600052601160045260246000fd5b600061195f82611618565b915061196a83611618565b925082820390508181111561198257611981611925565b5b92915050565b600061199382611618565b915061199e83611618565b92508282026119ac81611618565b915082820484148315176119c3576119c2611925565b5b5092915050565b6119d381611765565b82525050565b60006040820190506119ee60008301856119ca565b6119fb602083018461167b565b9392505050565b60008115159050919050565b611a1781611a02565b8114611a2257600080fd5b50565b600081519050611a3481611a0e565b92915050565b600060208284031215611a5057611a4f611613565b5b6000611a5e84828501611a25565b91505092915050565b7f4e487b7100000000000000000000000000000000000000000000000000000000600052601260045260246000fd5b6000611aa182611618565b9150611aac83611618565b925082611abc57611abb611a67565b5b828204905092915050565b7f53686172652073686f756c64206265206c657373207468616e20746f74616c5360008201527f6861726500000000000000000000000000000000000000000000000000000000602082015250565b6000611b236024836117d0565b9150611b2e82611ac7565b604082019050919050565b60006020820190508181036000830152611b5281611b16565b9050919050565b7f416d6f756e742063616e6e6f74206265207a65726f2100000000000000000000600082015250565b6000611b8f6016836117d0565b9150611b9a82611b59565b602082019050919050565b60006020820190508181036000830152611bbe81611b82565b9050919050565b6000602082019050611bda60008301846119ca565b92915050565b600081519050611bef81611622565b92915050565b600060208284031215611c0b57611c0a611613565b5b6000611c1984828501611be0565b91505092915050565b7f496e73756666696369656e7420616d6f756e7400000000000000000000000000600082015250565b6000611c586013836117d0565b9150611c6382611c22565b602082019050919050565b60006020820190508181036000830152611c8781611c4b565b9050919050565b6000604082019050611ca360008301856119ca565b611cb060208301846119ca565b9392505050565b7f496e73756666696369656e7420616c6c6f77616e636500000000000000000000600082015250565b6000611ced6016836117d0565b9150611cf882611cb7565b602082019050919050565b60006020820190508181036000830152611d1c81611ce0565b9050919050565b6000606082019050611d3860008301866119ca565b611d4560208301856119ca565b611d52604083018461167b565b949350505050565b6000611d6582611618565b9150611d7083611618565b9250828201905080821115611d8857611d87611925565b5b92915050565b6000611d9982611618565b915060008203611dac57611dab611925565b5b600182039050919050565b7f4571756976616c656e742076616c7565206f6620746f6b656e73206e6f74207060008201527f726f76696465642e2e2e00000000000000000000000000000000000000000000602082015250565b6000611e13602a836117d0565b9150611e1e82611db7565b604082019050919050565b60006020820190508181036000830152611e4281611e06565b9050919050565b7f41737365742076616c7565206c657373207468616e207468726573686f6c642060008201527f666f7220636f6e747269627574696f6e21000000000000000000000000000000602082015250565b6000611ea56031836117d0565b9150611eb082611e49565b604082019050919050565b60006020820190508181036000830152611ed481611e98565b905091905056fea2646970667358221220b26a6b23ca23c8160a749dd314ee893904c92f658bd1c4c0969fc2a179e5b26a64736f6c63430008110033",
  "linkReferences": {},
  "deployedLinkReferences": {}
}